{
  "contractName": "cert",
  "abi": [
    {
      "inputs": [],
      "stateMutability": "nonpayable",
      "type": "constructor"
    },
    {
      "inputs": [
        {
          "internalType": "address",
          "name": "instituteAddress",
          "type": "address"
        }
      ],
      "name": "isInstituteExists",
      "outputs": [
        {
          "internalType": "bool",
          "name": "",
          "type": "bool"
        }
      ],
      "stateMutability": "view",
      "type": "function",
      "constant": true
    },
    {
      "inputs": [
        {
          "internalType": "address",
          "name": "instad",
          "type": "address"
        },
        {
          "internalType": "string",
          "name": "_name",
          "type": "string"
        },
        {
          "internalType": "string",
          "name": "_acr",
          "type": "string"
        },
        {
          "internalType": "string",
          "name": "_link",
          "type": "string"
        },
        {
          "internalType": "string[]",
          "name": "_course",
          "type": "string[]"
        }
      ],
      "name": "addInstitute",
      "outputs": [],
      "stateMutability": "nonpayable",
      "type": "function"
    },
    {
      "inputs": [
        {
          "internalType": "address",
          "name": "instad",
          "type": "address"
        }
      ],
      "name": "viewInstitute",
      "outputs": [
        {
          "components": [
            {
              "internalType": "string",
              "name": "name",
              "type": "string"
            },
            {
              "internalType": "string",
              "name": "acr",
              "type": "string"
            },
            {
              "internalType": "string",
              "name": "link",
              "type": "string"
            },
            {
              "internalType": "string[]",
              "name": "course",
              "type": "string[]"
            },
            {
              "internalType": "bool",
              "name": "del",
              "type": "bool"
            }
          ],
          "internalType": "struct cert.institute",
          "name": "i",
          "type": "tuple"
        }
      ],
      "stateMutability": "view",
      "type": "function",
      "constant": true
    },
    {
      "inputs": [
        {
          "internalType": "address",
          "name": "instad",
          "type": "address"
        },
        {
          "internalType": "string",
          "name": "_name",
          "type": "string"
        },
        {
          "internalType": "string",
          "name": "_acr",
          "type": "string"
        },
        {
          "internalType": "string",
          "name": "_link",
          "type": "string"
        },
        {
          "internalType": "string[]",
          "name": "_course",
          "type": "string[]"
        }
      ],
      "name": "updateInstitute",
      "outputs": [],
      "stateMutability": "nonpayable",
      "type": "function"
    },
    {
      "inputs": [
        {
          "internalType": "address",
          "name": "instad",
          "type": "address"
        }
      ],
      "name": "deleteInstitute",
      "outputs": [],
      "stateMutability": "nonpayable",
      "type": "function"
    },
    {
      "inputs": [],
      "name": "viewAllInstitutes",
      "outputs": [
        {
          "components": [
            {
              "internalType": "string",
              "name": "name",
              "type": "string"
            },
            {
              "internalType": "string",
              "name": "acr",
              "type": "string"
            },
            {
              "internalType": "string",
              "name": "link",
              "type": "string"
            },
            {
              "internalType": "string[]",
              "name": "course",
              "type": "string[]"
            },
            {
              "internalType": "bool",
              "name": "del",
              "type": "bool"
            }
          ],
          "internalType": "struct cert.institute[]",
          "name": "",
          "type": "tuple[]"
        }
      ],
      "stateMutability": "view",
      "type": "function",
      "constant": true
    },
    {
      "inputs": [
        {
          "internalType": "address",
          "name": "instad",
          "type": "address"
        }
      ],
      "name": "getInstituteName",
      "outputs": [
        {
          "internalType": "string",
          "name": "",
          "type": "string"
        }
      ],
      "stateMutability": "view",
      "type": "function",
      "constant": true
    },
    {
      "inputs": [
        {
          "internalType": "address",
          "name": "studad",
          "type": "address"
        },
        {
          "internalType": "string",
          "name": "_name",
          "type": "string"
        }
      ],
      "name": "addStudent",
      "outputs": [],
      "stateMutability": "nonpayable",
      "type": "function"
    },
    {
      "inputs": [
        {
          "internalType": "address",
          "name": "certad",
          "type": "address"
        },
        {
          "internalType": "address",
          "name": "instad",
          "type": "address"
        },
        {
          "internalType": "address",
          "name": "studad",
          "type": "address"
        },
        {
          "internalType": "string",
          "name": "f_name",
          "type": "string"
        },
        {
          "internalType": "string",
          "name": "l_name",
          "type": "string"
        },
        {
          "internalType": "string",
          "name": "_course",
          "type": "string"
        },
        {
          "internalType": "int256",
          "name": "dur",
          "type": "int256"
        }
      ],
      "name": "issueCertificate",
      "outputs": [],
      "stateMutability": "nonpayable",
      "type": "function"
    },
    {
      "inputs": [
        {
          "internalType": "address",
          "name": "certad",
          "type": "address"
        }
      ],
      "name": "revCertificate",
      "outputs": [],
      "stateMutability": "nonpayable",
      "type": "function"
    },
    {
      "inputs": [
        {
          "internalType": "address",
          "name": "certad",
          "type": "address"
        }
      ],
      "name": "viewCertificate",
      "outputs": [
        {
          "components": [
            {
              "internalType": "string",
              "name": "fname",
              "type": "string"
            },
            {
              "internalType": "string",
              "name": "lname",
              "type": "string"
            },
            {
              "internalType": "address",
              "name": "stud",
              "type": "address"
            },
            {
              "internalType": "address",
              "name": "inst",
              "type": "address"
            },
            {
              "internalType": "string",
              "name": "instName",
              "type": "string"
            },
            {
              "internalType": "string",
              "name": "course",
              "type": "string"
            },
            {
              "internalType": "int256",
              "name": "duration",
              "type": "int256"
            },
            {
              "internalType": "bool",
              "name": "del",
              "type": "bool"
            }
          ],
          "internalType": "struct cert.certificate",
          "name": "",
          "type": "tuple"
        }
      ],
      "stateMutability": "view",
      "type": "function",
      "constant": true
    },
    {
      "inputs": [
        {
          "internalType": "address",
          "name": "studad",
          "type": "address"
        }
      ],
      "name": "getStudentName",
      "outputs": [
        {
          "internalType": "string",
          "name": "",
          "type": "string"
        }
      ],
      "stateMutability": "view",
      "type": "function",
      "constant": true
    },
    {
      "inputs": [
        {
          "internalType": "address",
          "name": "studad",
          "type": "address"
        }
      ],
      "name": "viewStudCert",
      "outputs": [
        {
          "components": [
            {
              "internalType": "string",
              "name": "fname",
              "type": "string"
            },
            {
              "internalType": "string",
              "name": "lname",
              "type": "string"
            },
            {
              "internalType": "address",
              "name": "stud",
              "type": "address"
            },
            {
              "internalType": "address",
              "name": "inst",
              "type": "address"
            },
            {
              "internalType": "string",
              "name": "instName",
              "type": "string"
            },
            {
              "internalType": "string",
              "name": "course",
              "type": "string"
            },
            {
              "internalType": "int256",
              "name": "duration",
              "type": "int256"
            },
            {
              "internalType": "bool",
              "name": "del",
              "type": "bool"
            }
          ],
          "internalType": "struct cert.certificate[]",
          "name": "",
          "type": "tuple[]"
        }
      ],
      "stateMutability": "view",
      "type": "function",
      "constant": true
    }
  ],
  "bytecode": "0x60806040526000600355600060065534801561001a57600080fd5b50336000806101000a81548173ffffffffffffffffffffffffffffffffffffffff021916908373ffffffffffffffffffffffffffffffffffffffff1602179055506138498061006a6000396000f3fe608060405234801561001057600080fd5b50600436106100cf5760003560e01c8063a57d25b91161008c578063b081ae9c11610066578063b081ae9c14610236578063d94ac88514610266578063e0d3792614610282578063e6feee6a1461029e576100cf565b8063a57d25b9146101ba578063a9d1b465146101ea578063af23ab401461021a576100cf565b80632e0308fb146100d45780633603ec82146101045780634077ea9c146101205780635e8b80911461013e57806364dbbaa21461015a5780638f8b501c1461018a575b600080fd5b6100ee60048036038101906100e99190612ae8565b6102ba565b6040516100fb9190612bae565b60405180910390f35b61011e60048036038101906101199190612d3b565b61038b565b005b610128610757565b60405161013591906130a5565b60405180910390f35b610158600480360381019061015391906130c7565b610bd9565b005b610174600480360381019061016f9190612ae8565b610c31565b6040516101819190613206565b60405180910390f35b6101a4600480360381019061019f9190612ae8565b610fa4565b6040516101b191906133af565b60405180910390f35b6101d460048036038101906101cf9190612ae8565b611900565b6040516101e1919061345c565b60405180910390f35b61020460048036038101906101ff9190612ae8565b611d97565b6040516102119190612bae565b60405180910390f35b610234600480360381019061022f9190613564565b611e6b565b005b610250600480360381019061024b9190612ae8565b612120565b60405161025d919061365e565b60405180910390f35b610280600480360381019061027b9190612ae8565b612438565b005b61029c60048036038101906102979190612ae8565b6125b1565b005b6102b860048036038101906102b39190613564565b612677565b005b6060600460008373ffffffffffffffffffffffffffffffffffffffff1673ffffffffffffffffffffffffffffffffffffffff1681526020019081526020016000208054610306906136a8565b80601f0160208091040260200160405190810160405280929190818152602001828054610332906136a8565b801561037f5780601f106103545761010080835404028352916020019161037f565b820191906000526020600020905b81548152906001019060200180831161036257829003601f168201915b50505050509050919050565b60011515600160008873ffffffffffffffffffffffffffffffffffffffff1673ffffffffffffffffffffffffffffffffffffffff16815260200190815260200160002060040160009054906101000a900460ff161515031561074e5760011515600160003373ffffffffffffffffffffffffffffffffffffffff1673ffffffffffffffffffffffffffffffffffffffff16815260200190815260200160002060040160009054906101000a900460ff161515031561074e576000600160008873ffffffffffffffffffffffffffffffffffffffff1673ffffffffffffffffffffffffffffffffffffffff1681526020019081526020016000206000018054610492906136a8565b80601f01602080910402602001604051908101604052809291908181526020018280546104be906136a8565b801561050b5780601f106104e05761010080835404028352916020019161050b565b820191906000526020600020905b8154815290600101906020018083116104ee57829003601f168201915b505050505090506040518061010001604052808681526020018581526020018773ffffffffffffffffffffffffffffffffffffffff1681526020018873ffffffffffffffffffffffffffffffffffffffff16815260200182815260200184815260200183815260200160001515815250600760008a73ffffffffffffffffffffffffffffffffffffffff1673ffffffffffffffffffffffffffffffffffffffff16815260200190815260200160002060008201518160000190805190602001906105d692919061284a565b5060208201518160010190805190602001906105f392919061284a565b5060408201518160020160006101000a81548173ffffffffffffffffffffffffffffffffffffffff021916908373ffffffffffffffffffffffffffffffffffffffff16021790555060608201518160030160006101000a81548173ffffffffffffffffffffffffffffffffffffffff021916908373ffffffffffffffffffffffffffffffffffffffff160217905550608082015181600401908051906020019061069e92919061284a565b5060a08201518160050190805190602001906106bb92919061284a565b5060c0820151816006015560e08201518160070160006101000a81548160ff0219169083151502179055509050506008889080600181540180825580915050600190039060005260206000200160009091909190916101000a81548173ffffffffffffffffffffffffffffffffffffffff021916908373ffffffffffffffffffffffffffffffffffffffff160217905550505b50505050505050565b6060600060035467ffffffffffffffff81111561077757610776612bda565b5b6040519080825280602002602001820160405280156107b057816020015b61079d6128d0565b8152602001906001900390816107955790505b5090506000805b600280549050811015610bd0576000151560016000600284815481106107e0576107df6136d9565b5b9060005260206000200160009054906101000a900473ffffffffffffffffffffffffffffffffffffffff1673ffffffffffffffffffffffffffffffffffffffff1673ffffffffffffffffffffffffffffffffffffffff16815260200190815260200160002060040160009054906101000a900460ff16151503610bbd576001600060028381548110610875576108746136d9565b5b9060005260206000200160009054906101000a900473ffffffffffffffffffffffffffffffffffffffff1673ffffffffffffffffffffffffffffffffffffffff1673ffffffffffffffffffffffffffffffffffffffff1681526020019081526020016000206040518060a00160405290816000820180546108f5906136a8565b80601f0160208091040260200160405190810160405280929190818152602001828054610921906136a8565b801561096e5780601f106109435761010080835404028352916020019161096e565b820191906000526020600020905b81548152906001019060200180831161095157829003601f168201915b50505050508152602001600182018054610987906136a8565b80601f01602080910402602001604051908101604052809291908181526020018280546109b3906136a8565b8015610a005780601f106109d557610100808354040283529160200191610a00565b820191906000526020600020905b8154815290600101906020018083116109e357829003601f168201915b50505050508152602001600282018054610a19906136a8565b80601f0160208091040260200160405190810160405280929190818152602001828054610a45906136a8565b8015610a925780601f10610a6757610100808354040283529160200191610a92565b820191906000526020600020905b815481529060010190602001808311610a7557829003601f168201915b5050505050815260200160038201805480602002602001604051908101604052809291908181526020016000905b82821015610b6c578382906000526020600020018054610adf906136a8565b80601f0160208091040260200160405190810160405280929190818152602001828054610b0b906136a8565b8015610b585780601f10610b2d57610100808354040283529160200191610b58565b820191906000526020600020905b815481529060010190602001808311610b3b57829003601f168201915b505050505081526020019060010190610ac0565b5050505081526020016004820160009054906101000a900460ff161515151581525050838381518110610ba257610ba16136d9565b5b6020026020010181905250600182610bba9190613741565b91505b8080610bc890613797565b9150506107b7565b50819250505090565b80600460008473ffffffffffffffffffffffffffffffffffffffff1673ffffffffffffffffffffffffffffffffffffffff1681526020019081526020016000209080519060200190610c2c92919061284a565b505050565b610c39612901565b600760008373ffffffffffffffffffffffffffffffffffffffff1673ffffffffffffffffffffffffffffffffffffffff16815260200190815260200160002060405180610100016040529081600082018054610c94906136a8565b80601f0160208091040260200160405190810160405280929190818152602001828054610cc0906136a8565b8015610d0d5780601f10610ce257610100808354040283529160200191610d0d565b820191906000526020600020905b815481529060010190602001808311610cf057829003601f168201915b50505050508152602001600182018054610d26906136a8565b80601f0160208091040260200160405190810160405280929190818152602001828054610d52906136a8565b8015610d9f5780601f10610d7457610100808354040283529160200191610d9f565b820191906000526020600020905b815481529060010190602001808311610d8257829003601f168201915b505050505081526020016002820160009054906101000a900473ffffffffffffffffffffffffffffffffffffffff1673ffffffffffffffffffffffffffffffffffffffff1673ffffffffffffffffffffffffffffffffffffffff1681526020016003820160009054906101000a900473ffffffffffffffffffffffffffffffffffffffff1673ffffffffffffffffffffffffffffffffffffffff1673ffffffffffffffffffffffffffffffffffffffff168152602001600482018054610e64906136a8565b80601f0160208091040260200160405190810160405280929190818152602001828054610e90906136a8565b8015610edd5780601f10610eb257610100808354040283529160200191610edd565b820191906000526020600020905b815481529060010190602001808311610ec057829003601f168201915b50505050508152602001600582018054610ef6906136a8565b80601f0160208091040260200160405190810160405280929190818152602001828054610f22906136a8565b8015610f6f5780601f10610f4457610100808354040283529160200191610f6f565b820191906000526020600020905b815481529060010190602001808311610f5257829003601f168201915b50505050508152602001600682015481526020016007820160009054906101000a900460ff1615151515815250509050919050565b60606000805b60088054905081101561124357600015156007600060088481548110610fd357610fd26136d9565b5b9060005260206000200160009054906101000a900473ffffffffffffffffffffffffffffffffffffffff1673ffffffffffffffffffffffffffffffffffffffff1673ffffffffffffffffffffffffffffffffffffffff16815260200190815260200160002060070160009054906101000a900460ff16151503611230578373ffffffffffffffffffffffffffffffffffffffff16600760006008848154811061107f5761107e6136d9565b5b9060005260206000200160009054906101000a900473ffffffffffffffffffffffffffffffffffffffff1673ffffffffffffffffffffffffffffffffffffffff1673ffffffffffffffffffffffffffffffffffffffff16815260200190815260200160002060020160009054906101000a900473ffffffffffffffffffffffffffffffffffffffff1673ffffffffffffffffffffffffffffffffffffffff160361122f5760001515600160006007600060088681548110611143576111426136d9565b5b9060005260206000200160009054906101000a900473ffffffffffffffffffffffffffffffffffffffff1673ffffffffffffffffffffffffffffffffffffffff1673ffffffffffffffffffffffffffffffffffffffff16815260200190815260200160002060030160009054906101000a900473ffffffffffffffffffffffffffffffffffffffff1673ffffffffffffffffffffffffffffffffffffffff1673ffffffffffffffffffffffffffffffffffffffff16815260200190815260200160002060040160009054906101000a900460ff1615150361122e5760018261122b9190613741565b91505b5b5b808061123b90613797565b915050610faa565b5060008167ffffffffffffffff8111156112605761125f612bda565b5b60405190808252806020026020018201604052801561129957816020015b611286612901565b81526020019060019003908161127e5790505b5090506000805b838110156118f4576000151560076000600884815481106112c4576112c36136d9565b5b9060005260206000200160009054906101000a900473ffffffffffffffffffffffffffffffffffffffff1673ffffffffffffffffffffffffffffffffffffffff1673ffffffffffffffffffffffffffffffffffffffff16815260200190815260200160002060070160009054906101000a900460ff161515036118e1578573ffffffffffffffffffffffffffffffffffffffff1660076000600884815481106113705761136f6136d9565b5b9060005260206000200160009054906101000a900473ffffffffffffffffffffffffffffffffffffffff1673ffffffffffffffffffffffffffffffffffffffff1673ffffffffffffffffffffffffffffffffffffffff16815260200190815260200160002060020160009054906101000a900473ffffffffffffffffffffffffffffffffffffffff1673ffffffffffffffffffffffffffffffffffffffff16036118e05760001515600160006007600060088681548110611434576114336136d9565b5b9060005260206000200160009054906101000a900473ffffffffffffffffffffffffffffffffffffffff1673ffffffffffffffffffffffffffffffffffffffff1673ffffffffffffffffffffffffffffffffffffffff16815260200190815260200160002060030160009054906101000a900473ffffffffffffffffffffffffffffffffffffffff1673ffffffffffffffffffffffffffffffffffffffff1673ffffffffffffffffffffffffffffffffffffffff16815260200190815260200160002060040160009054906101000a900460ff161515036118df576007600060088381548110611527576115266136d9565b5b9060005260206000200160009054906101000a900473ffffffffffffffffffffffffffffffffffffffff1673ffffffffffffffffffffffffffffffffffffffff1673ffffffffffffffffffffffffffffffffffffffff168152602001908152602001600020604051806101000160405290816000820180546115a8906136a8565b80601f01602080910402602001604051908101604052809291908181526020018280546115d4906136a8565b80156116215780601f106115f657610100808354040283529160200191611621565b820191906000526020600020905b81548152906001019060200180831161160457829003601f168201915b5050505050815260200160018201805461163a906136a8565b80601f0160208091040260200160405190810160405280929190818152602001828054611666906136a8565b80156116b35780601f10611688576101008083540402835291602001916116b3565b820191906000526020600020905b81548152906001019060200180831161169657829003601f168201915b505050505081526020016002820160009054906101000a900473ffffffffffffffffffffffffffffffffffffffff1673ffffffffffffffffffffffffffffffffffffffff1673ffffffffffffffffffffffffffffffffffffffff1681526020016003820160009054906101000a900473ffffffffffffffffffffffffffffffffffffffff1673ffffffffffffffffffffffffffffffffffffffff1673ffffffffffffffffffffffffffffffffffffffff168152602001600482018054611778906136a8565b80601f01602080910402602001604051908101604052809291908181526020018280546117a4906136a8565b80156117f15780601f106117c6576101008083540402835291602001916117f1565b820191906000526020600020905b8154815290600101906020018083116117d457829003601f168201915b5050505050815260200160058201805461180a906136a8565b80601f0160208091040260200160405190810160405280929190818152602001828054611836906136a8565b80156118835780601f1061185857610100808354040283529160200191611883565b820191906000526020600020905b81548152906001019060200180831161186657829003601f168201915b50505050508152602001600682015481526020016007820160009054906101000a900460ff1615151515815250508383815181106118c4576118c36136d9565b5b60200260200101819052506001826118dc9190613741565b91505b5b5b80806118ec90613797565b9150506112a0565b50819350505050919050565b6119086128d0565b606060006040518060a001604052806040518060400160405280600781526020017f696e76616c69640000000000000000000000000000000000000000000000000081525081526020016040518060400160405280600381526020017f696e76000000000000000000000000000000000000000000000000000000000081525081526020016040518060400160405280600481526020017f6e756c6c00000000000000000000000000000000000000000000000000000000815250815260200183815260200160001515815250905060008054906101000a900473ffffffffffffffffffffffffffffffffffffffff1673ffffffffffffffffffffffffffffffffffffffff163373ffffffffffffffffffffffffffffffffffffffff1614611a34578092505050611d92565b60011515600160008673ffffffffffffffffffffffffffffffffffffffff1673ffffffffffffffffffffffffffffffffffffffff16815260200190815260200160002060040160009054906101000a900460ff16151503611a99578092505050611d92565b600160008573ffffffffffffffffffffffffffffffffffffffff1673ffffffffffffffffffffffffffffffffffffffff1681526020019081526020016000206040518060a0016040529081600082018054611af3906136a8565b80601f0160208091040260200160405190810160405280929190818152602001828054611b1f906136a8565b8015611b6c5780601f10611b4157610100808354040283529160200191611b6c565b820191906000526020600020905b815481529060010190602001808311611b4f57829003601f168201915b50505050508152602001600182018054611b85906136a8565b80601f0160208091040260200160405190810160405280929190818152602001828054611bb1906136a8565b8015611bfe5780601f10611bd357610100808354040283529160200191611bfe565b820191906000526020600020905b815481529060010190602001808311611be157829003601f168201915b50505050508152602001600282018054611c17906136a8565b80601f0160208091040260200160405190810160405280929190818152602001828054611c43906136a8565b8015611c905780601f10611c6557610100808354040283529160200191611c90565b820191906000526020600020905b815481529060010190602001808311611c7357829003601f168201915b5050505050815260200160038201805480602002602001604051908101604052809291908181526020016000905b82821015611d6a578382906000526020600020018054611cdd906136a8565b80601f0160208091040260200160405190810160405280929190818152602001828054611d09906136a8565b8015611d565780601f10611d2b57610100808354040283529160200191611d56565b820191906000526020600020905b815481529060010190602001808311611d3957829003601f168201915b505050505081526020019060010190611cbe565b5050505081526020016004820160009054906101000a900460ff161515151581525050925050505b919050565b6060600160008373ffffffffffffffffffffffffffffffffffffffff1673ffffffffffffffffffffffffffffffffffffffff1681526020019081526020016000206000018054611de6906136a8565b80601f0160208091040260200160405190810160405280929190818152602001828054611e12906136a8565b8015611e5f5780601f10611e3457610100808354040283529160200191611e5f565b820191906000526020600020905b815481529060010190602001808311611e4257829003601f168201915b50505050509050919050565b60011515600160003373ffffffffffffffffffffffffffffffffffffffff1673ffffffffffffffffffffffffffffffffffffffff16815260200190815260200160002060040160009054906101000a900460ff16151503156121195783600160008773ffffffffffffffffffffffffffffffffffffffff1673ffffffffffffffffffffffffffffffffffffffff1681526020019081526020016000206000019080519060200190611f1d92919061284a565b5082600160008773ffffffffffffffffffffffffffffffffffffffff1673ffffffffffffffffffffffffffffffffffffffff1681526020019081526020016000206001019080519060200190611f7492919061284a565b5081600160008773ffffffffffffffffffffffffffffffffffffffff1673ffffffffffffffffffffffffffffffffffffffff1681526020019081526020016000206002019080519060200190611fcb92919061284a565b50600160008673ffffffffffffffffffffffffffffffffffffffff1673ffffffffffffffffffffffffffffffffffffffff1681526020019081526020016000206000808201600061201c9190612974565b60018201600061202c9190612974565b60028201600061203c9190612974565b60038201600061204c91906129b4565b6004820160006101000a81549060ff0219169055505060005b815181101561211757600160008773ffffffffffffffffffffffffffffffffffffffff1673ffffffffffffffffffffffffffffffffffffffff1681526020019081526020016000206003018282815181106120c3576120c26136d9565b5b602002602001015190806001815401808255809150506001900390600052602060002001600090919091909150908051906020019061210392919061284a565b50808061210f90613797565b915050612065565b505b5050505050565b600080600160008473ffffffffffffffffffffffffffffffffffffffff1673ffffffffffffffffffffffffffffffffffffffff1681526020019081526020016000206040518060a001604052908160008201805461217d906136a8565b80601f01602080910402602001604051908101604052809291908181526020018280546121a9906136a8565b80156121f65780601f106121cb576101008083540402835291602001916121f6565b820191906000526020600020905b8154815290600101906020018083116121d957829003601f168201915b5050505050815260200160018201805461220f906136a8565b80601f016020809104026020016040519081016040528092919081815260200182805461223b906136a8565b80156122885780601f1061225d57610100808354040283529160200191612288565b820191906000526020600020905b81548152906001019060200180831161226b57829003601f168201915b505050505081526020016002820180546122a1906136a8565b80601f01602080910402602001604051908101604052809291908181526020018280546122cd906136a8565b801561231a5780601f106122ef5761010080835404028352916020019161231a565b820191906000526020600020905b8154815290600101906020018083116122fd57829003601f168201915b5050505050815260200160038201805480602002602001604051908101604052809291908181526020016000905b828210156123f4578382906000526020600020018054612367906136a8565b80601f0160208091040260200160405190810160405280929190818152602001828054612393906136a8565b80156123e05780601f106123b5576101008083540402835291602001916123e0565b820191906000526020600020905b8154815290600101906020018083116123c357829003601f168201915b505050505081526020019060010190612348565b5050505081526020016004820160009054906101000a900460ff1615151515815250509050600081600001515111801561243057508060800151155b915050919050565b60011515600160003373ffffffffffffffffffffffffffffffffffffffff1673ffffffffffffffffffffffffffffffffffffffff16815260200190815260200160002060040160009054906101000a900460ff16151503156125ae576001151560016000600760008573ffffffffffffffffffffffffffffffffffffffff1673ffffffffffffffffffffffffffffffffffffffff16815260200190815260200160002060030160009054906101000a900473ffffffffffffffffffffffffffffffffffffffff1673ffffffffffffffffffffffffffffffffffffffff1673ffffffffffffffffffffffffffffffffffffffff16815260200190815260200160002060040160009054906101000a900460ff16151503156125ae576001600760008373ffffffffffffffffffffffffffffffffffffffff1673ffffffffffffffffffffffffffffffffffffffff16815260200190815260200160002060070160006101000a81548160ff0219169083151502179055505b50565b60008054906101000a900473ffffffffffffffffffffffffffffffffffffffff1673ffffffffffffffffffffffffffffffffffffffff163373ffffffffffffffffffffffffffffffffffffffff16036126745760018060008373ffffffffffffffffffffffffffffffffffffffff1673ffffffffffffffffffffffffffffffffffffffff16815260200190815260200160002060040160006101000a81548160ff021916908315150217905550600160035461266d91906137df565b6003819055505b50565b60008054906101000a900473ffffffffffffffffffffffffffffffffffffffff1673ffffffffffffffffffffffffffffffffffffffff163373ffffffffffffffffffffffffffffffffffffffff1603612843576040518060a0016040528085815260200184815260200183815260200182815260200160001515815250600160008773ffffffffffffffffffffffffffffffffffffffff1673ffffffffffffffffffffffffffffffffffffffff168152602001908152602001600020600082015181600001908051906020019061274f92919061284a565b50602082015181600101908051906020019061276c92919061284a565b50604082015181600201908051906020019061278992919061284a565b5060608201518160030190805190602001906127a69291906129d5565b5060808201518160040160006101000a81548160ff0219169083151502179055509050506002859080600181540180825580915050600190039060005260206000200160009091909190916101000a81548173ffffffffffffffffffffffffffffffffffffffff021916908373ffffffffffffffffffffffffffffffffffffffff160217905550600160035461283c9190613741565b6003819055505b5050505050565b828054612856906136a8565b90600052602060002090601f01602090048101928261287857600085556128bf565b82601f1061289157805160ff19168380011785556128bf565b828001600101855582156128bf579182015b828111156128be5782518255916020019190600101906128a3565b5b5090506128cc9190612a35565b5090565b6040518060a00160405280606081526020016060815260200160608152602001606081526020016000151581525090565b6040518061010001604052806060815260200160608152602001600073ffffffffffffffffffffffffffffffffffffffff168152602001600073ffffffffffffffffffffffffffffffffffffffff1681526020016060815260200160608152602001600081526020016000151581525090565b508054612980906136a8565b6000825580601f1061299257506129b1565b601f0160209004906000526020600020908101906129b09190612a35565b5b50565b50805460008255906000526020600020908101906129d29190612a52565b50565b828054828255906000526020600020908101928215612a24579160200282015b82811115612a23578251829080519060200190612a1392919061284a565b50916020019190600101906129f5565b5b509050612a319190612a52565b5090565b5b80821115612a4e576000816000905550600101612a36565b5090565b5b80821115612a725760008181612a699190612974565b50600101612a53565b5090565b6000604051905090565b600080fd5b600080fd5b600073ffffffffffffffffffffffffffffffffffffffff82169050919050565b6000612ab582612a8a565b9050919050565b612ac581612aaa565b8114612ad057600080fd5b50565b600081359050612ae281612abc565b92915050565b600060208284031215612afe57612afd612a80565b5b6000612b0c84828501612ad3565b91505092915050565b600081519050919050565b600082825260208201905092915050565b60005b83811015612b4f578082015181840152602081019050612b34565b83811115612b5e576000848401525b50505050565b6000601f19601f8301169050919050565b6000612b8082612b15565b612b8a8185612b20565b9350612b9a818560208601612b31565b612ba381612b64565b840191505092915050565b60006020820190508181036000830152612bc88184612b75565b905092915050565b600080fd5b600080fd5b7f4e487b7100000000000000000000000000000000000000000000000000000000600052604160045260246000fd5b612c1282612b64565b810181811067ffffffffffffffff82111715612c3157612c30612bda565b5b80604052505050565b6000612c44612a76565b9050612c508282612c09565b919050565b600067ffffffffffffffff821115612c7057612c6f612bda565b5b612c7982612b64565b9050602081019050919050565b82818337600083830152505050565b6000612ca8612ca384612c55565b612c3a565b905082815260208101848484011115612cc457612cc3612bd5565b5b612ccf848285612c86565b509392505050565b600082601f830112612cec57612ceb612bd0565b5b8135612cfc848260208601612c95565b91505092915050565b6000819050919050565b612d1881612d05565b8114612d2357600080fd5b50565b600081359050612d3581612d0f565b92915050565b600080600080600080600060e0888a031215612d5a57612d59612a80565b5b6000612d688a828b01612ad3565b9750506020612d798a828b01612ad3565b9650506040612d8a8a828b01612ad3565b955050606088013567ffffffffffffffff811115612dab57612daa612a85565b5b612db78a828b01612cd7565b945050608088013567ffffffffffffffff811115612dd857612dd7612a85565b5b612de48a828b01612cd7565b93505060a088013567ffffffffffffffff811115612e0557612e04612a85565b5b612e118a828b01612cd7565b92505060c0612e228a828b01612d26565b91505092959891949750929550565b600081519050919050565b600082825260208201905092915050565b6000819050602082019050919050565b600082825260208201905092915050565b6000612e7982612b15565b612e838185612e5d565b9350612e93818560208601612b31565b612e9c81612b64565b840191505092915050565b600081519050919050565b600082825260208201905092915050565b6000819050602082019050919050565b6000612edf8383612e6e565b905092915050565b6000602082019050919050565b6000612eff82612ea7565b612f098185612eb2565b935083602082028501612f1b85612ec3565b8060005b85811015612f575784840389528151612f388582612ed3565b9450612f4383612ee7565b925060208a01995050600181019050612f1f565b50829750879550505050505092915050565b60008115159050919050565b612f7e81612f69565b82525050565b600060a0830160008301518482036000860152612fa18282612e6e565b91505060208301518482036020860152612fbb8282612e6e565b91505060408301518482036040860152612fd58282612e6e565b91505060608301518482036060860152612fef8282612ef4565b91505060808301516130046080860182612f75565b508091505092915050565b600061301b8383612f84565b905092915050565b6000602082019050919050565b600061303b82612e31565b6130458185612e3c565b93508360208202850161305785612e4d565b8060005b858110156130935784840389528151613074858261300f565b945061307f83613023565b925060208a0199505060018101905061305b565b50829750879550505050505092915050565b600060208201905081810360008301526130bf8184613030565b905092915050565b600080604083850312156130de576130dd612a80565b5b60006130ec85828601612ad3565b925050602083013567ffffffffffffffff81111561310d5761310c612a85565b5b61311985828601612cd7565b9150509250929050565b61312c81612aaa565b82525050565b61313b81612d05565b82525050565b600061010083016000830151848203600086015261315f8282612e6e565b915050602083015184820360208601526131798282612e6e565b915050604083015161318e6040860182613123565b5060608301516131a16060860182613123565b50608083015184820360808601526131b98282612e6e565b91505060a083015184820360a08601526131d38282612e6e565b91505060c08301516131e860c0860182613132565b5060e08301516131fb60e0860182612f75565b508091505092915050565b600060208201905081810360008301526132208184613141565b905092915050565b600081519050919050565b600082825260208201905092915050565b6000819050602082019050919050565b60006101008301600083015184820360008601526132728282612e6e565b9150506020830151848203602086015261328c8282612e6e565b91505060408301516132a16040860182613123565b5060608301516132b46060860182613123565b50608083015184820360808601526132cc8282612e6e565b91505060a083015184820360a08601526132e68282612e6e565b91505060c08301516132fb60c0860182613132565b5060e083015161330e60e0860182612f75565b508091505092915050565b60006133258383613254565b905092915050565b6000602082019050919050565b600061334582613228565b61334f8185613233565b93508360208202850161336185613244565b8060005b8581101561339d578484038952815161337e8582613319565b94506133898361332d565b925060208a01995050600181019050613365565b50829750879550505050505092915050565b600060208201905081810360008301526133c9818461333a565b905092915050565b600060a08301600083015184820360008601526133ee8282612e6e565b915050602083015184820360208601526134088282612e6e565b915050604083015184820360408601526134228282612e6e565b9150506060830151848203606086015261343c8282612ef4565b91505060808301516134516080860182612f75565b508091505092915050565b6000602082019050818103600083015261347681846133d1565b905092915050565b600067ffffffffffffffff82111561349957613498612bda565b5b602082029050602081019050919050565b600080fd5b60006134c26134bd8461347e565b612c3a565b905080838252602082019050602084028301858111156134e5576134e46134aa565b5b835b8181101561352c57803567ffffffffffffffff81111561350a57613509612bd0565b5b8086016135178982612cd7565b855260208501945050506020810190506134e7565b5050509392505050565b600082601f83011261354b5761354a612bd0565b5b813561355b8482602086016134af565b91505092915050565b600080600080600060a086880312156135805761357f612a80565b5b600061358e88828901612ad3565b955050602086013567ffffffffffffffff8111156135af576135ae612a85565b5b6135bb88828901612cd7565b945050604086013567ffffffffffffffff8111156135dc576135db612a85565b5b6135e888828901612cd7565b935050606086013567ffffffffffffffff81111561360957613608612a85565b5b61361588828901612cd7565b925050608086013567ffffffffffffffff81111561363657613635612a85565b5b61364288828901613536565b9150509295509295909350565b61365881612f69565b82525050565b6000602082019050613673600083018461364f565b92915050565b7f4e487b7100000000000000000000000000000000000000000000000000000000600052602260045260246000fd5b600060028204905060018216806136c057607f821691505b6020821081036136d3576136d2613679565b5b50919050565b7f4e487b7100000000000000000000000000000000000000000000000000000000600052603260045260246000fd5b6000819050919050565b7f4e487b7100000000000000000000000000000000000000000000000000000000600052601160045260246000fd5b600061374c82613708565b915061375783613708565b9250827fffffffffffffffffffffffffffffffffffffffffffffffffffffffffffffffff0382111561378c5761378b613712565b5b828201905092915050565b60006137a282613708565b91507fffffffffffffffffffffffffffffffffffffffffffffffffffffffffffffffff82036137d4576137d3613712565b5b600182019050919050565b60006137ea82613708565b91506137f583613708565b92508282101561380857613807613712565b5b82820390509291505056fea264697066735822122068d9d58e20f38726156b29c4c2df224d6b43408e7a1c375d1b0e15ecd28c3d7764736f6c634300080d0033",
  "immutableReferences": {},
  "source": "// SPDX-License-Identifier: UNLICENSED\npragma solidity >=0.7.0 <0.9.0;\n\ncontract cert{\n\n    address admin;\n\n    constructor() {\n        admin=msg.sender;\n    }\n\n    struct institute {\n        string name;\n        string acr;\n        string link;\n        string[] course;\n        bool del;\n    }\n\n    mapping(address=>institute) institutes;\n    address[] InstAddressList;\n    uint instcnt = 0;\n    \n    function isInstituteExists(address instituteAddress) public view returns (bool) {\n        institute memory inst = institutes[instituteAddress];\n        return (bytes(inst.name).length > 0) && !inst.del;\n    }\n\n    function addInstitute(address instad,string memory _name,string memory _acr,string memory _link,string[] memory _course) public{\n        if(msg.sender != admin)\n            return ;\n\n        institutes[instad] = institute(_name,_acr,_link,_course,false);\n        InstAddressList.push(instad);\n        instcnt = instcnt + 1;\n    }\n\n    function viewInstitute(address instad) public view returns (institute memory i)\n    {\n        string[] memory es;\n        institute memory t = institute(\"invalid\",\"inv\",\"null\",es,false);\n\n        if(msg.sender != admin)\n            return t;\n        \n        if(institutes[instad].del == true)\n            return t;\n\n        return (institutes[instad]);\n    }\n\n    function updateInstitute(address instad,string memory _name,string memory _acr,string memory _link,string[] memory _course) public {\n        if(institutes[msg.sender].del == true)\n            return;\n\n        institutes[instad].name = _name;\n        institutes[instad].acr = _acr;\n        institutes[instad].link = _link;\n\n        delete institutes[instad];\n        for(uint i=0;i<_course.length;i++)\n            institutes[instad].course.push(_course[i]);   \n    } \n    \n    function deleteInstitute(address instad) public {\n        if(msg.sender != admin)\n            return;\n        institutes[instad].del = true;\n        instcnt = instcnt - 1;\n    }\n\n    function viewAllInstitutes() public view returns (institute[] memory)  {\n        \n        institute[] memory ans = new institute[](instcnt);\n        // if(msg.sender != admin)\n        //     return ans;\n        uint j = 0;\n        for(uint i=0;i<InstAddressList.length;i++)\n        {\n            if(institutes[InstAddressList[i]].del == false)\n            {\n                ans[j] = institutes[InstAddressList[i]];\n                j = j  +1 ;\n            }\n        }\n        return ans;\n    }\n    \n    function getInstituteName(address instad) public view returns (string memory) {\n    \treturn institutes[instad].name;\n    }\n\n    mapping(address=>string) students;\n    address[] StudAddressList;\n    uint studcnt = 0;    \n\n    function addStudent(address studad,string memory _name) public{\n        students[studad] = _name;\n    }\n\n    struct certificate{\n    \tstring fname;\n    \tstring lname;\n        address stud;\n        address inst;\n        string instName;\n        string course;\n        int duration;  \n        bool del; \n    }   \n\n    mapping(address=>certificate) certificates;\n    address[] certAddressList;\n\n    function issueCertificate(address certad,address instad,address studad,string memory f_name,string memory l_name,string memory _course,int dur) public\n    {\n        if(institutes[instad].del == true)\n            return;\n        if(institutes[msg.sender].del == true)\n            return;\n        \n        string memory instName = institutes[instad].name;\n        \n        certificates[certad] = certificate(f_name, l_name, studad, instad, instName, _course, dur, false);\n        certAddressList.push(certad);\n    }\n\n    function revCertificate(address certad) public\n    {\n        if(institutes[msg.sender].del == true)\n            return;\n        if(institutes[certificates[certad].inst].del == true)\n            return;\n\n        certificates[certad].del = true;\n    }\n\n    function viewCertificate(address certad) public view returns (certificate memory){\n        return certificates[certad];\n    }\n    \n    function getStudentName(address studad) public view returns (string memory) {\n        return students[studad];\n    }\n    \n    function viewStudCert(address studad) public view returns (certificate[] memory){\n        uint cnt = 0;\n        for(uint i=0;i<certAddressList.length;i++)\n        {\n            if(certificates[certAddressList[i]].del  == false)\n            {\n                if(certificates[certAddressList[i]].stud == studad)\n                {\n                    if(institutes[certificates[certAddressList[i]].inst].del == false)\n                        cnt = cnt + 1;\n                }\n            }\n        }\n\n        certificate[] memory ans = new certificate[](cnt);\n        uint j = 0;\n        for(uint i=0;i<cnt;i++)\n        {\n            if(certificates[certAddressList[i]].del  == false)\n            {\n                if(certificates[certAddressList[i]].stud == studad)\n                {\n                    if(institutes[certificates[certAddressList[i]].inst].del == false)\n                    {\n                            ans[j] = certificates[certAddressList[i]];\n                            j = j + 1;\n                    }\n                }\n            }         \n        }\n        return ans;\n    }\n\n}   \n",
  "sourcePath": "E:\\CertChain 2\\CertChain\\contracts\\cert.sol",
  "compiler": {
    "name": "solc",
    "version": "0.8.13+commit.abaa5c0e.Emscripten.clang"
  },
  "schemaVersion": "3.4.16",
  "updatedAt": "2024-10-11T11:50:41.953Z",
  "networkType": "ethereum",
  "devdoc": {
    "kind": "dev",
    "methods": {},
    "version": 1
  },
  "userdoc": {
    "kind": "user",
    "methods": {},
    "version": 1
  }
}